:100A0500756C747261736F6E69632072616E676570
:010A150000E0
:10099E00E4FDFCC3ED9FEC9E5015E4FBFA0BBB008F
:0F09AE00010ABA04F8BBFBF50DBD00010C80E493
:0109BD002217
:0A0A4F00E4F580F590F5A0F5B02263
:0F0A1600D287C2A7D2A6C2A5D2A530870280F789
:010A250022AE
:0E0A3500120A168F80D2A5C2A7C2A6C2A522A1
:0F09BE007E00CFCDCFCECCCE12086EEF2430FF0F
:0E09CD00120A168F80D2A5D2A7C2A6C2A522FA
:1009DB007F38120A357F0F120A357F06120A357FD0
:0909EB0001120A357F1C020A35D5
:100979008B088A09890AAB08AA09A90A1208006022
:1009890013050AE50A7002050914F9120800FF1295
:0509990009CD80E222FF
:10094C00120A4F1209DB1209F4D2B27F01120A35D6
:10095C007BFF7A0A79051209797FC0120A351209D0
:0D096C00091208BA7F647E0012099E80DE29
:1008BA00AB07AA067C277D101209C67C277D10AFDC
:1008CA0003AE0212086E7E037FE81209C07C037D24
:1008DA00E8AF03AE0212086E7F641209BE7C007D87
:1008EA0064AF03AE0212086E7F0A1209BEAE02AFEF
:0F08FA00037C007D0A12086EED2430FF0209CD49
:1009F400758909E4F58CF58AD28CF58DF58BD28E48
:010A040022CF
:0F0A2600D2B300000000000000000000C2B322A5
:10090900120A2630B2FD20B2FD858C83858A827554
:100919008CFF758AFFAF82AE83E4FCFD7BA07A8CE5
:10092900F9F8D31208A44011AF82AE837C007D3A56
:100939001208198E0B8F0C8005E4F50BF50CAE0B24
:03094900AF0C22CE
:03000000020A43AE
:0C0A4300787FE4F6D8FD75810C02094CA8
:10080000BB010689828A83E0225002E722BBFE02F6
:09081000E32289828A83E4932229
:10081900BC000BBE0029EF8DF084FFADF022E4CCC3
:10082900F875F008EF2FFFEE33FEEC33FCEE9DEC8C
:10083900984005FCEE9DFE0FD5F0E9E4CEFD22EDD2
:10084900F8F5F0EE8420D21CFEADF075F008EF2F1C
:10085900FFED33FD4007985006D5F0F222C398FD0D
:050869000FD5F0EA22AA
:10086E00C2D5EC30E709B2D5E4C39DFDE49CFCEEA5
:10087E0030E715B2D5E4C39FFFE49EFE120819C3FC
:10088E00E49DFDE49CFC800312081930D507C3E4F7
:06089E009FFFE49EFE2214
:1008A400EB9FF5F0EA9E42F0E99D42F0EC6480C8CB
:0608B40064809845F0226B
:00000001FF
